{
  "contractName": "JunoContract",
  "abi": [
    {
      "constant": false,
      "inputs": [],
      "name": "unpause",
      "outputs": [],
      "payable": false,
      "stateMutability": "nonpayable",
      "type": "function"
    },
    {
      "constant": false,
      "inputs": [],
      "name": "kill",
      "outputs": [],
      "payable": false,
      "stateMutability": "nonpayable",
      "type": "function"
    },
    {
      "constant": true,
      "inputs": [],
      "name": "numJunos",
      "outputs": [
        {
          "name": "",
          "type": "uint256"
        }
      ],
      "payable": false,
      "stateMutability": "view",
      "type": "function"
    },
    {
      "constant": true,
      "inputs": [],
      "name": "paused",
      "outputs": [
        {
          "name": "",
          "type": "bool"
        }
      ],
      "payable": false,
      "stateMutability": "view",
      "type": "function"
    },
    {
      "constant": false,
      "inputs": [],
      "name": "pause",
      "outputs": [],
      "payable": false,
      "stateMutability": "nonpayable",
      "type": "function"
    },
    {
      "constant": true,
      "inputs": [],
      "name": "owner",
      "outputs": [
        {
          "name": "",
          "type": "address"
        }
      ],
      "payable": false,
      "stateMutability": "view",
      "type": "function"
    },
    {
      "constant": false,
      "inputs": [
        {
          "name": "newOwner",
          "type": "address"
        }
      ],
      "name": "transferOwnership",
      "outputs": [],
      "payable": false,
      "stateMutability": "nonpayable",
      "type": "function"
    },
    {
      "inputs": [],
      "payable": false,
      "stateMutability": "nonpayable",
      "type": "constructor"
    },
    {
      "anonymous": false,
      "inputs": [
        {
          "indexed": false,
          "name": "sender",
          "type": "address"
        },
        {
          "indexed": false,
          "name": "junoId",
          "type": "uint256"
        }
      ],
      "name": "Plan",
      "type": "event"
    },
    {
      "anonymous": false,
      "inputs": [
        {
          "indexed": false,
          "name": "junoId",
          "type": "uint256"
        },
        {
          "indexed": false,
          "name": "numAttendee",
          "type": "uint256"
        }
      ],
      "name": "Blessing",
      "type": "event"
    },
    {
      "anonymous": false,
      "inputs": [
        {
          "indexed": false,
          "name": "sender",
          "type": "address"
        },
        {
          "indexed": false,
          "name": "junoId",
          "type": "uint256"
        }
      ],
      "name": "Sign",
      "type": "event"
    },
    {
      "anonymous": false,
      "inputs": [],
      "name": "Pause",
      "type": "event"
    },
    {
      "anonymous": false,
      "inputs": [],
      "name": "Unpause",
      "type": "event"
    },
    {
      "anonymous": false,
      "inputs": [
        {
          "indexed": true,
          "name": "previousOwner",
          "type": "address"
        },
        {
          "indexed": true,
          "name": "newOwner",
          "type": "address"
        }
      ],
      "name": "OwnershipTransferred",
      "type": "event"
    },
    {
      "constant": false,
      "inputs": [
        {
          "name": "_groom",
          "type": "string"
        },
        {
          "name": "_bride",
          "type": "string"
        }
      ],
      "name": "plan",
      "outputs": [
        {
          "name": "",
          "type": "uint256"
        }
      ],
      "payable": false,
      "stateMutability": "nonpayable",
      "type": "function"
    },
    {
      "constant": false,
      "inputs": [
        {
          "name": "_junoId",
          "type": "uint256"
        },
        {
          "name": "_attendee",
          "type": "string"
        }
      ],
      "name": "blessing",
      "outputs": [],
      "payable": false,
      "stateMutability": "nonpayable",
      "type": "function"
    },
    {
      "constant": false,
      "inputs": [
        {
          "name": "_junoId",
          "type": "uint256"
        }
      ],
      "name": "sign",
      "outputs": [],
      "payable": false,
      "stateMutability": "nonpayable",
      "type": "function"
    },
    {
      "constant": true,
      "inputs": [],
      "name": "getAllJunos",
      "outputs": [
        {
          "name": "",
          "type": "uint256[]"
        }
      ],
      "payable": false,
      "stateMutability": "view",
      "type": "function"
    },
    {
      "constant": true,
      "inputs": [
        {
          "name": "_junoId",
          "type": "uint256"
        }
      ],
      "name": "getJunoLight",
      "outputs": [
        {
          "name": "groom",
          "type": "string"
        },
        {
          "name": "bride",
          "type": "string"
        },
        {
          "name": "startTime",
          "type": "uint64"
        }
      ],
      "payable": false,
      "stateMutability": "view",
      "type": "function"
    },
    {
      "constant": true,
      "inputs": [
        {
          "name": "_junoId",
          "type": "uint256"
        }
      ],
      "name": "getJunoAll",
      "outputs": [
        {
          "name": "groom",
          "type": "string"
        },
        {
          "name": "bride",
          "type": "string"
        },
        {
          "name": "signTime",
          "type": "uint64"
        }
      ],
      "payable": false,
      "stateMutability": "view",
      "type": "function"
    }
  ],
  "bytecode": "0x608060405260008060146101000a81548160ff02191690831515021790555034801561002a57600080fd5b50336000806101000a81548173ffffffffffffffffffffffffffffffffffffffff021916908373ffffffffffffffffffffffffffffffffffffffff160217905550600060018190555061144d806100826000396000f3006080604052600436106100c5576000357c0100000000000000000000000000000000000000000000000000000000900463ffffffff1680632fb1b25f146100ca578063380ea0b5146100f75780633878dbb91461013c5780633f4ba83a146101a857806341c0e1b5146101bf5780634618a613146101d65780635c975abb146102015780638456cb59146102305780638da5cb5b14610247578063b27243391461029e578063b9eee6ee146103cb578063f2fde38b14610432578063fb2e24dc14610475575b600080fd5b3480156100d657600080fd5b506100f5600480360381019080803590602001909291905050506105a2565b005b34801561010357600080fd5b5061013a600480360381019080803590602001909291908035906020019082018035906020019190919293919293905050506106aa565b005b34801561014857600080fd5b50610151610769565b6040518080602001828103825283818151815260200191508051906020019060200280838360005b83811015610194578082015181840152602081019050610179565b505050509050019250505060405180910390f35b3480156101b457600080fd5b506101bd6107c1565b005b3480156101cb57600080fd5b506101d461087f565b005b3480156101e257600080fd5b506101eb610914565b6040518082815260200191505060405180910390f35b34801561020d57600080fd5b5061021661091a565b604051808215151515815260200191505060405180910390f35b34801561023c57600080fd5b5061024561092d565b005b34801561025357600080fd5b5061025c6109ed565b604051808273ffffffffffffffffffffffffffffffffffffffff1673ffffffffffffffffffffffffffffffffffffffff16815260200191505060405180910390f35b3480156102aa57600080fd5b506102c960048036038101908080359060200190929190505050610a12565b6040518080602001806020018467ffffffffffffffff1667ffffffffffffffff168152602001838103835286818151815260200191508051906020019080838360005b8381101561032757808201518184015260208101905061030c565b50505050905090810190601f1680156103545780820380516001836020036101000a031916815260200191505b50838103825285818151815260200191508051906020019080838360005b8381101561038d578082015181840152602081019050610372565b50505050905090810190601f1680156103ba5780820380516001836020036101000a031916815260200191505b509550505050505060405180910390f35b3480156103d757600080fd5b5061041c600480360381019080803590602001908201803590602001919091929391929390803590602001908201803590602001919091929391929390505050610d2a565b6040518082815260200191505060405180910390f35b34801561043e57600080fd5b50610473600480360381019080803573ffffffffffffffffffffffffffffffffffffffff169060200190929190505050610ecb565b005b34801561048157600080fd5b506104a060048036038101908080359060200190929190505050611020565b6040518080602001806020018467ffffffffffffffff1667ffffffffffffffff168152602001838103835286818151815260200191508051906020019080838360005b838110156104fe5780820151818401526020810190506104e3565b50505050905090810190601f16801561052b5780820380516001836020036101000a031916815260200191505b50838103825285818151815260200191508051906020019080838360005b83811015610564578082015181840152602081019050610549565b50505050905090810190601f1680156105915780820380516001836020036101000a031916815260200191505b509550505050505060405180910390f35b60008060149054906101000a900460ff161515156105bf57600080fd5b600073ffffffffffffffffffffffffffffffffffffffff163373ffffffffffffffffffffffffffffffffffffffff16141515156105fb57600080fd5b600360008381526020019081526020016000209050428160040160006101000a81548167ffffffffffffffff021916908367ffffffffffffffff1602179055507f9a10b6124411386407c4a174729b856d293832181c352e98b5cb316b96cd30593383604051808373ffffffffffffffffffffffffffffffffffffffff1673ffffffffffffffffffffffffffffffffffffffff1681526020018281526020019250505060405180910390a15050565b600080600060149054906101000a900460ff161515156106c957600080fd5b60036000868152602001908152602001600020915081600301848490918060018154018082558091505090600182039060005260206000200160009091929390919293909192909192509190610720929190611338565b5090507fd65dffd6a735e575b2d1e06573a5052477617493cbd05fd9c65f501949b684de8582604051808381526020018281526020019250505060405180910390a15050505050565b606060028054806020026020016040519081016040528092919081815260200182805480156107b757602002820191906000526020600020905b8154815260200190600101908083116107a3575b5050505050905090565b6000809054906101000a900473ffffffffffffffffffffffffffffffffffffffff1673ffffffffffffffffffffffffffffffffffffffff163373ffffffffffffffffffffffffffffffffffffffff1614151561081c57600080fd5b600060149054906101000a900460ff16151561083757600080fd5b60008060146101000a81548160ff0219169083151502179055507f7805862f689e2f13df9f062ff482ad3ad112aca9e0847911ed832e158c525b3360405160405180910390a1565b6000809054906101000a900473ffffffffffffffffffffffffffffffffffffffff1673ffffffffffffffffffffffffffffffffffffffff163373ffffffffffffffffffffffffffffffffffffffff161415156108da57600080fd5b6000809054906101000a900473ffffffffffffffffffffffffffffffffffffffff1673ffffffffffffffffffffffffffffffffffffffff16ff5b60015481565b600060149054906101000a900460ff1681565b6000809054906101000a900473ffffffffffffffffffffffffffffffffffffffff1673ffffffffffffffffffffffffffffffffffffffff163373ffffffffffffffffffffffffffffffffffffffff1614151561098857600080fd5b600060149054906101000a900460ff161515156109a457600080fd5b6001600060146101000a81548160ff0219169083151502179055507f6985a02210a168e66602d3235cb6db0e70f92b3ba4d376a33c0f3d9434bff62560405160405180910390a1565b6000809054906101000a900473ffffffffffffffffffffffffffffffffffffffff1681565b6060806000610a1f6113b8565b600073ffffffffffffffffffffffffffffffffffffffff163373ffffffffffffffffffffffffffffffffffffffff1614151515610a5b57600080fd5b6003600086815260200190815260200160002060a06040519081016040529081600082018054600181600116156101000203166002900480601f016020809104026020016040519081016040528092919081815260200182805460018160011615610100020316600290048015610b135780601f10610ae857610100808354040283529160200191610b13565b820191906000526020600020905b815481529060010190602001808311610af657829003601f168201915b50505050508152602001600182018054600181600116156101000203166002900480601f016020809104026020016040519081016040528092919081815260200182805460018160011615610100020316600290048015610bb55780601f10610b8a57610100808354040283529160200191610bb5565b820191906000526020600020905b815481529060010190602001808311610b9857829003601f168201915b505050505081526020016002820160009054906101000a900467ffffffffffffffff1667ffffffffffffffff1667ffffffffffffffff16815260200160038201805480602002602001604051908101604052809291908181526020016000905b82821015610cd1578382906000526020600020018054600181600116156101000203166002900480601f016020809104026020016040519081016040528092919081815260200182805460018160011615610100020316600290048015610cbd5780601f10610c9257610100808354040283529160200191610cbd565b820191906000526020600020905b815481529060010190602001808311610ca057829003601f168201915b505050505081526020019060010190610c15565b5050505081526020016004820160009054906101000a900467ffffffffffffffff1667ffffffffffffffff1667ffffffffffffffff16815250509050806000015193508060200151925080608001519150509193909250565b60008060008060149054906101000a900460ff16151515610d4a57600080fd5b600073ffffffffffffffffffffffffffffffffffffffff163373ffffffffffffffffffffffffffffffffffffffff1614151515610d8657600080fd5b60008787905014151515610d9957600080fd5b60008585905014151515610dac57600080fd5b600160008154809291906001019190505591506003600083815260200190815260200160002090508686826000019190610de7929190611338565b508484826001019190610dfb929190611338565b50428160020160006101000a81548167ffffffffffffffff021916908367ffffffffffffffff16021790555060028290806001815401808255809150509060018203906000526020600020016000909192909190915055507fa760054054f07a182400eec897138819599280e27ae9a1599c629d332a6439543383604051808373ffffffffffffffffffffffffffffffffffffffff1673ffffffffffffffffffffffffffffffffffffffff1681526020018281526020019250505060405180910390a18192505050949350505050565b6000809054906101000a900473ffffffffffffffffffffffffffffffffffffffff1673ffffffffffffffffffffffffffffffffffffffff163373ffffffffffffffffffffffffffffffffffffffff16141515610f2657600080fd5b600073ffffffffffffffffffffffffffffffffffffffff168173ffffffffffffffffffffffffffffffffffffffff1614151515610f6257600080fd5b8073ffffffffffffffffffffffffffffffffffffffff166000809054906101000a900473ffffffffffffffffffffffffffffffffffffffff1673ffffffffffffffffffffffffffffffffffffffff167f8be0079c531659141344cd1fd0a4f28419497f9722a3daafe3b4186f6b6457e060405160405180910390a3806000806101000a81548173ffffffffffffffffffffffffffffffffffffffff021916908373ffffffffffffffffffffffffffffffffffffffff16021790555050565b606080600061102d6113b8565b600073ffffffffffffffffffffffffffffffffffffffff163373ffffffffffffffffffffffffffffffffffffffff161415151561106957600080fd5b6003600086815260200190815260200160002060a06040519081016040529081600082018054600181600116156101000203166002900480601f0160208091040260200160405190810160405280929190818152602001828054600181600116156101000203166002900480156111215780601f106110f657610100808354040283529160200191611121565b820191906000526020600020905b81548152906001019060200180831161110457829003601f168201915b50505050508152602001600182018054600181600116156101000203166002900480601f0160208091040260200160405190810160405280929190818152602001828054600181600116156101000203166002900480156111c35780601f10611198576101008083540402835291602001916111c3565b820191906000526020600020905b8154815290600101906020018083116111a657829003601f168201915b505050505081526020016002820160009054906101000a900467ffffffffffffffff1667ffffffffffffffff1667ffffffffffffffff16815260200160038201805480602002602001604051908101604052809291908181526020016000905b828210156112df578382906000526020600020018054600181600116156101000203166002900480601f0160208091040260200160405190810160405280929190818152602001828054600181600116156101000203166002900480156112cb5780601f106112a0576101008083540402835291602001916112cb565b820191906000526020600020905b8154815290600101906020018083116112ae57829003601f168201915b505050505081526020019060010190611223565b5050505081526020016004820160009054906101000a900467ffffffffffffffff1667ffffffffffffffff1667ffffffffffffffff16815250509050806000015193508060200151925080604001519150509193909250565b828054600181600116156101000203166002900490600052602060002090601f016020900481019282601f1061137957803560ff19168380011785556113a7565b828001600101855582156113a7579182015b828111156113a657823582559160200191906001019061138b565b5b5090506113b491906113fc565b5090565b60a0604051908101604052806060815260200160608152602001600067ffffffffffffffff16815260200160608152602001600067ffffffffffffffff1681525090565b61141e91905b8082111561141a576000816000905550600101611402565b5090565b905600a165627a7a72305820cf4d50eb100c19328268d19712d8ccd2c3bf76405131f98124736a1d5338d6110029",
  "source": "pragma solidity 0.4.23;\n\nimport \"./Mortal.sol\";\nimport \"./Pausable.sol\";\n\ncontract JunoContract is Mortal, Pausable {\n\n  struct Juno {\n    string groom;\n    string bride;\n    uint64 startTime;\n    string[] attendee;\n    uint64 signTime;\n  }\n\n  uint256 public numJunos;\n  uint256[] junoIds;\n  mapping (uint256 => Juno) internal junos;\n\n  event Plan(address sender, uint256 junoId);\n  event Blessing(uint256 junoId, uint256 numAttendee);\n  event Sign(address sender, uint256 junoId);\n\n  constructor() public {\n    numJunos = 0;\n  }\n\n  function plan(string _groom, string _bride) external whenNotPaused returns(uint256) {\n    require(msg.sender != address(0));\n    require(bytes(_groom).length != 0);\n    require(bytes(_bride).length != 0);\n\n    uint junoId = numJunos++;\n    Juno storage juno = junos[junoId];\n    juno.groom = _groom;\n    juno.bride = _bride;\n    juno.startTime = uint64(now);\n\n    junoIds.push(junoId);\n\n    emit Plan(msg.sender, junoId);\n\n    return junoId;\n  }\n\n  function blessing(uint256 _junoId, string _attendee) external whenNotPaused {\n    Juno storage juno = junos[_junoId];\n    uint256 numAttendee = juno.attendee.push(_attendee);\n\n    emit Blessing(_junoId, numAttendee);\n  }\n\n  function sign(uint256 _junoId) external whenNotPaused {\n    require(msg.sender != address(0));\n\n    Juno storage juno = junos[_junoId];\n    juno.signTime = uint64(now);\n\n    emit Sign(msg.sender, _junoId);\n  }\n\n  function getAllJunos() external view returns (uint256[]) {\n    return junoIds;\n  }\n\n  function getJunoLight(uint256 _junoId) external view returns (string groom, string bride, uint64 startTime) {\n    require(msg.sender != address(0));\n    \n    Juno memory juno = junos[_junoId];\n    groom = juno.groom;\n    bride = juno.bride;\n    startTime = juno.startTime;\n  }\n\n  function getJunoAll(uint256 _junoId) external view returns (string groom, string bride, uint64 signTime) {\n    require(msg.sender != address(0));\n    \n    Juno memory juno = junos[_junoId];\n    groom = juno.groom;\n    bride = juno.bride;\n    signTime = juno.signTime;\n  }\n}",
  "sourcePath": "/Users/nagaishou/blockchain_workspace/projects/project-juno/contracts/JunoContract.sol",
  "compiler": {
    "name": "solc",
    "version": "0.4.23+commit.124ca40d.Emscripten.clang"
  },
  "schemaVersion": "2.0.0",
  "updatedAt": "2018-06-20T16:03:53.644Z"
}